:020000041000EA
:1000000000B5324B212058609868022188439860DF
:10001000D860186158612E4B002199600221596106
:100020000121F02299502B49196001219960352056
:1000300000F044F80222904214D00621196600F024
:1000400034F8196E01211966002018661A6600F04E
:100050002CF8196E196E196E052000F02FF8012189
:100060000842F9D1002199601B49196000215960AB
:100070001A491B48016001219960EB211966A021F2
:10008000196600F012F800219960164914480160C1
:100090000121996001BC002800D000471248134993
:1000A000086003C880F30888084703B5996A0420EC
:1000B0000142FBD001200142F8D103BD02B5186610
:1000C0001866FFF7F2FF186E186E02BD00000240BE
:1000D000000000180000070000035F00212200005C
:1000E000F4000018222000A00001001008ED00E03C
:1000F00000000000000000000000000074B24E7A12
:1001000000200420F7010010C3010010C5010010F9
:10011000C1010010C1010010C1010010C101001097
:10012000C1010010C1010010C101001025570010CD
:10013000C1010010C10100107B570010C55700100D
:10014000CD010010CD010010CD010010CD01001037
:10015000CD010010CD010010CD010010CD01001027
:10016000CD010010CD010010CD010010CD01001017
:10017000CD010010CD010010CD010010CD01001007
:10018000CD010010CD010010CD010010CD010010F7
:10019000CD010010CD010010CD010010CD010010E7
:1001A000CD010010CD010010CD010010CD010010D7
:1001B000CD010010CD010010CD010010CD010010C7
:1001C00000BE00BE00BE00BE00BE00BE00F04BF888
:1001D000103800BEF2EB8871A4730010C8730010D1
:1001E0003402001090A31AE700202149086006C8D5
:1001F00081F3088810471F48006800282FD10DA4FC
:100200000ECC002902D000F012F8F9E71A491B4A77
:10021000002000E001C19142FCD1194988471949E9
:1002200088471949884700BEFDE701C901C29A42C3
:10023000FBD37047C8730010C00000208802002064
:10024000907500100000042000000420907500103C
:1002500000100420001004200000000070470B482C
:1002600002F082FD0047EFF30580C0B27047000046
:1002700008ED00E0000000D08802002040CB002004
:10028000691700107D030010251700105756000055
:1002900006005250ABB36053D872001006005250A3
:1002A000861C0302E8720010060052505422A29DE0
:1002B000F072001005005250DE65F4689075001071
:1002C000F8B5C0460448054B10B5834203D0044B33
:1002D000002B00D0984710BD880200208802002023
:1002E0000000000006480749091A8B10C90FC918F9
:1002F00010B5491003D0044B002B00D0984710BD17
:1003000088020020880200200000000010B5074C81
:100310002378002B09D1FFF7D5FF054B002B02D026
:10032000044800E000BF0123237010BD88030020B3
:100330000000000010650010054B10B5002B03D025
:100340000449054800E000BFFFF7CCFF10BDC046E0
:10035000000000008C0300201065001070B5D0254F
:100360002D068026B6046E61FA24A400200004F055
:10037000C1FAAE61200004F0BDFA70BD10B584B0C2
:1003800003F080FD192000F035F8D02424068023E6
:100390009B046362002000F02DF8012363620023B8
:1003A0000393802203A901910093D20003490448DA
:1003B00003F062FF04F0EEF8FEE7C046106500109F
:1003C0005D03001010B58300084A944663441C681E
:1003D00040226240C02414408022520113431C601A
:1003E000C000034B9C466044416010BD04C0014006
:1003F0000040014010B501238340D02212069362D1
:1004000093610521FFF7DEFF10BD0000EFF31080C0
:1004100072B6034B1B68002BFBD0BFF35F8F704796
:100420002C0100D0BFF35F8F024B00221A6080F3D3
:10043000108870472C0100D0F8B506000C0015009C
:10044000FFF7E4FFE308F718F15C072222400123DD
:1004500093400B4205D1DBB20B433B70FFF7E2FF49
:10046000F8BD2100280001F0FBF90000034B1B68D8
:1004700002201840431E9841C0B2704700C0064099
:10048000002307E0054A9A189200BFF35F8F00210E
:10049000116001331F2BF5D97047C046400000346E
:1004A000054A1078431CDBB21370172B02D91300D6
:1004B00010221A707047C046B0010020074B9B689D
:1004C000103080001950BFF35F8FBFF35F8F044B74
:1004D0000021196082F310887047C04600ED00E0EB
:1004E000240100D010B5091A081F0A4B9C4661442C
:1004F000094A914208D8C30706D440104005400D70
:10050000064B184380B210BD054B064A9921064898
:1005100001F00CF9FC070000FE0F000000E0FFFFF7
:100520001C650010606700104C65001010B5091ABA
:1005300004394C08090B08D14905490D064A1143F5
:100540000180064B2343438010BD054B054AA12182
:10055000054801F0EBF8C04600F0FFFF00F8FFFF90
:100560008C650010346700104C6500100123834037
:10057000034A10681840431E9841C0B27047C046F5
:1005800000E100E0002904D0034B1860034B186021
:100590007047034B1860FBE780E200E000E100E0F9
:1005A00080E100E010B5012383401800FFF7EAFF67
:1005B00010BD0000024B9B6810308000C05870478F
:1005C00000ED00E070B504000D00EFF3108672B688
:1005D0000C4B1B68002BFBD0BFF35F8F2000FFF795
:1005E000E9FF094B984201D0A84205D13200290009
:1005F0002000FFF763FF70BD044B054A7C210548CE
:1006000001F094F8240100D0CD0100109C65001089
:100610007C6700104C650010F0B5CE46474680B5AB
:1006200083B006000D00EFF3108872B6564B1B68BE
:10063000002BFBD0BFF35F8F544B9A68340010340B
:10064000A300D758524B9F4207D0AF4200D199E048
:100650000197504BFB1A2F2B09D942463900300025
:10066000FFF72CFF03B0C0BCB946B046F0BD300068
:10067000FFF77CFF814600213000FFF793FFBFF3B7
:100680005F8FFFF7F0FD002801D0844211D10123D4
:10069000019C9C430022A368AB4212D00622A256C2
:1006A000002A0DDB53009B189B002200394CE418F4
:1006B000F1E72C21384B394AFF31394801F036F83F
:1006C0002200AB4257D106256557002D39DB6B0060
:1006D0005B199A002F4B9B189A68A260DA79E27135
:1006E00006229A56A2719B795BB2002B10DABD20CC
:1006F0000002A0806B005B199B00264AD318294A90
:1007000011789971157049463000FFF74BFFA4E747
:10071000201D6B005B199B001E4A9B181A1D9B88AD
:10072000D90A1C2907D15B055B1502335900511802
:10073000FFF7D8FEDDE71C4B1C4AA721184800F044
:10074000F5FF002812D1002A0ED0FF239371184B19
:100750009380144A1378A371164B0E49641A6441AE
:1007600063431B0D1370CEE7094FF2E7201D1249BA
:10077000FFF7DCFEC7E76021104B084AFF3108484D
:1007800000F0D4FF024F68E7240100D000ED00E044
:10079000CD010010B4010020B06600104C670010BD
:1007A0004C6500103DCB0020986600106C6700106F
:1007B00000BDFFFFAAAA0000EE010020D4660010D1
:1007C00070B50400012606432D4BF31A2F2B28D8B1
:1007D000FFF749FD00282BD0EFF3108C72B6294BA0
:1007E0001B68002BFBD0BFF35F8F274D22002449ED
:1007F000521A524155432D0D6DB2244B9B68800017
:100800001B58B3421BD00022032A32D853009B1836
:100810009B001B49CB189B795BB2AB421FD00132C6
:10082000F2E7C2211A4B1B4A49001B4800F07EFF29
:1008300088211A4B174AFF31174800F077FF134BF6
:100840009B68174A1A50174B1A78A2711D70BFF394
:100850005F8F0C4B00221A608CF3108870BD08006B
:100860005300991889004118FF268E710E4A8A801C
:10087000E9E7CC210D4B074A4900074800F056FF35
:10088000B4010020240100D0AAAA000000ED00E07D
:10089000DC660010186700104C650010046700103B
:1008A000CD0100103DCB002000BDFFFF1067001000
:1008B0000022044B02E0044902C30132072AFAD99C
:1008C0007047C04600E400E080808080024B9C4678
:1008D00061448900016070474000003470B5050034
:1008E0000C00080000F07AFB200000F04BFC0849E7
:1008F000200000F08BFBFFF7D3FD064B9C466044C5
:10090000800068602C75A400034BE55070BDC046A4
:10091000F10B0010400000340CC9002010B5002974
:1009200022D003681B7B99421ED8174B9C4661441A
:10093000090183689C4661440C684968002A19D003
:1009400003681B7B9A4215D883680F48844662442B
:1009500012019A1810685368020001208B4201D8D6
:100960000ED00020C0B210BD084B094A3B210948F7
:1009700000F0DCFE054B064A3B21064800F0D6FE9F
:10098000A242EFD8EDE7C046FFFFFF0FE46700107B
:10099000F4690010AC67001010B500291ED0037B6D
:1009A00099421BD84B005B18033B0468A446634480
:1009B000002919D0002A1DD0914221D0002A25D02B
:1009C000047BA24222D80468500080180338201803
:1009D0008170197800291FD11A7010BD104B114A6F
:1009E0006821114800F0A2FE104B114A6F310E48E9
:1009F00000F09CFE0F4B0E4A70210B4800F096FE53
:100A00000D4B0B4A7121084800F090FE044B054A3B
:100A10006821054800F08AFE41701A70DDE7C04683
:100A200018680010486A00103468001080680010D0
:100A3000246A00108C6800109868001070B50600D9
:100A40000D001400002914D0002A14D080687368A7
:100A50009847002806D0220029003000FFF79CFFAD
:100A6000280007E02A0021003000FFF795FF200052
:100A700000E0100070BD0800FCE70000F0B583B096
:100A80000500009201930AAB1C780BAB1F78002C79
:100A900026D003685A7B944207D10123002B19D139
:100AA000002C3BD1200003B0F0BD002C0CD01A7BF1
:100AB000944209D81A6863001B19033BD3189B782A
:100AC000002BEBD00123E9E73E4B3F4A68213F482A
:100AD00000F02CFE3E4B3F4A65213F4800F026FEC9
:100AE00003689C7B002CDBD012D01A7B94420FD879
:100AF00062001219033A19688C466244517899735E
:100B0000002900D1D9730023937053701370C7E785
:100B10002C4B2D4A68212D4800F008FE002C3AD0BD
:100B20002B681B7B9C4236D82C4BE3181B01AA6810
:100B300094466344009A1A60019A5A60089A9A602F
:100B4000099ADA602E68002C2BD030D0337B9C427F
:100B50002DD863001B19033B32689446634400227E
:100B60009A705A701A70717B22003000FFF766FF8E
:100B70007073844200D095E7287D009A019B00F0B5
:100B80008DFA061E01D0002F17D00C9B002B00D130
:100B900088E71E7086E7124B124A3B210E4800F090
:100BA000C5FD114B114AA521084800F0BFFD054BBA
:100BB000054A6821054800F0B9FD2868210000F0C9
:100BC00095FCE2E718680010486A001034680010CD
:100BD000B0680010546A0010AC670010FFFFFF0FF0
:100BE000E4670010F4690010A8670010386A00106C
:100BF000F0B5DE4657464E464546E0B58BB0099007
:100C0000002308938200B24BD658370032E0B14B34
:100C1000B14A3F21B14800F089FDB14BB14A3B21B7
:100C2000B14800F083FDB14BB14A8C21AE4800F0D1
:100C30007DFDB04BAE4A9021AB4800F077FDA84B4C
:100C4000AD4A4021A84800F071FD2A686B680998F8
:100C500000F024FA00239A4698467B68BFF35F8F22
:100C600000221A6086F310884346002B51D10028D9
:100C700000D126E100F0BEF902000B1EC7DB002008
:100C80000021069007917868EFF3108672B601682C
:100C90000029FCD0BFF35F8F396888464C7B002C5D
:100CA00032D0BAD0097B8C42B7D8944965182D014F
:100CB000B9688C46654428686968801A994100299A
:100CC000C3DC01D10028C0D10021404600F004FC63
:100CD000A042A8D12A686B6806920793AB68984631
:100CE000EB689A464346002BA3D0002CA7D03B6864
:100CF0001B7B9C42A3D8631EFA68D35C08931B023B
:100D0000184338610020A8E700239A46984600203F
:100D1000A3E7089B1B022343994651461800C0478E
:100D200005000E007A68EFF3108B72B61368594213
:100D30004B41D9B2002BF9D1BFF35F8F002E26DBD8
:100D4000002E52DD3B69002B53D04B4572D100F091
:100D500051F902000B1E73DB010018005219734198
:100D6000984202D804D1914202D901225242D317AB
:100D7000002B6BDB00210491013103910294514659
:100D80000191414600913800FFF778FE49E03B6948
:100D9000002BD5D04B451CD1069A079B100019009B
:100DA000521BB341994202D804D1904202D9012288
:100DB0005242D317002B12DB002104910131039121
:100DC000029451460191414600913800FFF756FECA
:100DD00027E04B4B464A9F21434800F0A7FC3D4B80
:100DE0003D4A3F213D4800F0A1FC002E01D1002DDD
:100DF000A8D13A68002C45D0537B9C422CD10121CC
:100E000000293FD1D37B002B42D1D473002C52D088
:100E10003B681B7B9C424ED8FA68013C135D013352
:100E2000135500233B617A68BFF35F8F13608BF328
:100E300010881FE7324B2E4AA2212B4800F076FC87
:100E4000244B254A3F21254800F070FC214B224AC3
:100E50003F21224800F06AFC002C0DD0137B9C42FD
:100E60000AD863001B19033B1068844663449B78CF
:100E7000002BC5D00121C3E7224B234A6821234818
:100E800000F054FC224B234AF621204800F04EFC8F
:100E9000002B0AD0117B8B4207D85900CB18033B9B
:100EA00011688C4663445C70AFE7164B164A6821A4
:100EB000164800F03BFC0A4B0F4A40210A4800F05C
:100EC00035FC0BB0F0BCBB46B246A946A046F0BD0F
:100ED0000CC90020D8680010C0690010F468001028
:100EE000E4670010F4690010AC6700103C69001062
:100EF000D869001054690010006A0010FFFFFF0F4E
:100F00006069001018680010486A0010346800100A
:100F10009C690010146A001010B50A4B5B68002B26
:100F200004D00A210848FFF7D1FC10BD054C23006E
:100F3000064A1021206800F0EFF903212000FFF796
:100F4000CDFCEEE7FC01002020CB00201D090010A5
:100F500070B5EFF305833F2018401038EFF3108C85
:100F600072B6194B1B68002BFBD0BFF35F8F0123B8
:100F700019008140154A5163154A12781400C44083
:100F8000234214D0114B5C6A8300124D5B599C4282
:100F900006D38300104C1B598A430D490A7007E0A1
:100FA0000A4A031D9B0099589950002300E0002332
:100FB000BFF35F8F044A002111608CF31088002B6F
:100FC00000D0984770BDC046280100D000400540C1
:100FD0003ECB002024CB00208CC8002010B501009F
:100FE000024A0348FFF728FA10BDC0466C6A001099
:100FF0003CCB0020044B5B6A034A906A1900536A99
:101000009942F9D17047C0460040054070B50400D0
:101010000D00EFF3108672B61B4B1B68002BFBD044
:10102000BFF35F8F002D1CD02000FFF7C3FA174BD2
:1010300083420BD019002000FFF7C4FA01212000E1
:10104000FFF7B0FA0123A340114A1360A400114B2B
:10105000E550BFF35F8F0C4B00221A6086F31088B7
:1010600070BDA2000B4B0021D1500122A2400A49C1
:101070000B7893430B7005492000FFF7CDFA002150
:101080002000FFF78FFAE4E7280100D0510F00108D
:10109000386005408CC800203ECB0020F0B5DE460D
:1010A00000B584B00400150001921E000293FFF702
:1010B000A1FF03958E4202D84ED185424CD9EFF361
:1010C000108B72B6274B1B68002BFBD0BFF35F8FD2
:1010D000254A17780125A540EBB23B431370234BFB
:1010E0005D63221D92000199D150A200204902980F
:1010F00050501B6A2B4212D11C4B1B6C2B4208D048
:101100000020BFF35F8F174B00221A608BF310880B
:1011100023E0184B184AC121184800F007FBFFF7DD
:1011200069FF8E4214D802D1039B834210D80E4B24
:101130001B78BB420ED00D4B1D625D631F20044027
:101140000123A3400E4A1360074B1F701E38D8E7D7
:101150000020D6E70120D4E7012004B080BCBB46C4
:10116000F0BDC046280100D03ECB00200040054025
:1011700024CB0020906A0010F86A0010B46A0010B6
:1011800080E200E0EFF3108C72B60B4B1B68002B73
:10119000FBD0BFF35F8F01238340084A13620849E5
:1011A0000A789A430A70BFF35F8F034B00221A60DC
:1011B0008CF310887047C046280100D000400540DD
:1011C0003ECB002010B500291ED0037B99421BD8CE
:1011D0004B005B18033B0468A4466344002919D004
:1011E000002A1DD0914221D0002A25D0047BA242A2
:1011F00022D80468500080180338201881701978AC
:1012000000291FD11A7010BD104B114A68211148D6
:1012100000F08CFA104B114A6F310E4800F086FA3C
:101220000F4B0E4A70210B4800F080FA0D4B0B4A11
:101230007121084800F07AFA044B054A68210548F4
:1012400000F074FA41701A70DDE7C04618680010AB
:10125000046C00103468001080680010F06B0010FF
:101260008C6800109868001070B506000D0014001E
:10127000002914D0002A14D0806873689847002889
:1012800006D0220029003000FFF79CFF280007E06D
:101290002A0021003000FFF795FF200000E0100039
:1012A00070BD0800FCE7000010B500234373013354
:1012B0008373037BC3730123027B9A4214D9002BEF
:1012C0000CD0027B934209D85A00D218033A016825
:1012D0008C4662440133DBB25370EDE70B4B0C4A92
:1012E00068210C4800F022FA002A09D0924207D85F
:1012F000016853009A18033A8A180023537010BDEE
:10130000024B034A6821034800F010FA18680010E5
:10131000046C00103468001010B5017342608360E3
:10132000FFF7C2FF10BD000070B50400081E00D119
:1013300070BD002934D0237B994231D84B005B1813
:10134000033B2268944663445A78002AF0D02DD09B
:10135000237B9A422AD853009B18033B21688C4672
:1013600063445D7800215970002825D0237B984282
:1013700022D843001B18033B21688C46634400219C
:10138000597001002000FFF76FFF060029002000C0
:10139000FFF7CAFF020031002000FFF765FFC7E733
:1013A000084B094A6821094800F0C0F9054B064A74
:1013B0006821064800F0BAF9024B034A6821034845
:1013C00000F0B4F918680010046C001034680010C4
:1013D00070B505000C001600002928D02DD0037B25
:1013E00099422AD84B005B18033B02689446634439
:1013F0005A78002A27D19A78002A2AD11978FFF73B
:1014000093FF0300002E03D0EA7B002A27D1EC7360
:10141000002B37D1002C49D02B7B9C4246D82B681F
:1014200061000C19033C1C190023637070BD224B32
:10143000224A3821224800F079F9224B224A6821B9
:10144000224800F073F9224B1C4A3A211C4800F054
:101450006DF9204B194A3B21194800F067F9002A21
:101460000AD0297B8A4207D851008A18033A296892
:101470008C4662445470CAE7124B134A68211348E1
:1014800000F054F9002B0BD02A7B934208D843007C
:101490001B18033B2A689446634400229A70B9E7FC
:1014A000084B094A6821094800F040F9054B064AF3
:1014B0006821064800F03AF9146B0010DC6B00104C
:1014C0001C6B001018680010046C001034680010C9
:1014D000586B0010806B001070B504000A00457B4B
:1014E0002900FFF775FF6073280070BD70B5040018
:1014F000002967D0437B8B420ED0002911D0037B9B
:1015000099420ED84B005B18033B0268D0188378D1
:10151000002B0CD1002056E00121FFF7DDFF012058
:1015200051E0294B294A6821294800F0FFF8002B97
:1015300020D0227B93421DD85A00D318033B226847
:10154000D2182568EB5C8B421AD0002B1BD0227B73
:10155000934218D85A00D318033B2268D218537804
:101560008B4216D0002BF0D11A4B1B4A67211B4827
:1015700000F0DCF8144B154A6821154800F0D6F845
:101580004378137007E0104B104A6821104800F0B0
:10159000CDF84378537000238370437001222000FC
:1015A000FFF716FF0200617B814205D02000FFF7A4
:1015B0005BFE6073012006E0094B074A6D21074876
:1015C00000F0B4F8002070BD18680010046C001022
:1015D0003468001010670010C46B00101C6B001002
:1015E000A46B001010B50400FEF75AFF01002000A4
:1015F000FFF76CF9FF232371BFF35F8F10BD10B5A8
:101600000400FEF74DFF01002000FFF75FF9FF2304
:10161000237100236371BFF35F8F10BD70B50400A9
:101620000D00062000F036FAC000290001F0F0FBA2
:10163000C60908D00E4B9E4217D87F2318400130B0
:101640003500460800E001256562A6622C34802042
:101650008001044300232360062000F01BFA800071
:10166000A901891901F0D4FB70BD0026014DEBE7FB
:10167000FEFF0000FFFF0000002909D00A22064BF0
:101680009C466044434258414000044BC25270475C
:1016900080225200F3E7C0460080FCBF34CB00201C
:1016A00070B505000C00062000F0F4F9002829D0E0
:1016B000164B9D4227D08022D203154B1A60154B42
:1016C0001A60154B9B6811009943FAD1002128003C
:1016D000FFF7D2FF21002800FFF7A0FF2C002C34D9
:1016E000E96A60224A406E21114080225201224361
:1016F00011600A4B2B6380239B01234310221A6045
:101700000323AB6470BD80221204D6E7008003403F
:1017100000E0004000F0004000C000400103000075
:1017200000BEFDE710B5FFF7FBFF000010B582B06B
:101730000C001900002A0CD0084B002A0BD0019293
:10174000009323000200064802F090FB0120FFF7FF
:10175000E7FF044BF1E7034AF1E7C046AC6C001029
:10176000BC6C0010B86C001070B52B4B2B4A1A6083
:101770002B4B2C4A1A602C4B9A682A4B9343FAD174
:101780002A4C01E008CC9847294B9C42FAD300F040
:1017900001F9234B274A1A60234B9B68DB43DB018B
:1017A000FAD1254B40229A675A671A67DA66234CAA
:1017B00009E0234B234A83212348FFF7B7FF20008A
:1017C000FFF710FF0834214B9C4209D22368002BFD
:1017D000F5D0012BEDD12000FFF711FF0834F2E71F
:1017E0001B4CA1681B4DC022280002F0FBF9A5602C
:1017F000FEF739FD002800D000BEFEF741FEFFF7DE
:1018000057F8FFF789FB144C01E008CC9847134BBD
:101810009C42FAD370BDC04600E00040BFCDFBFE45
:1018200000F00040FE7F3C0000C000407402002039
:1018300084020020FFFFFF0100F001406C02002045
:10184000EC6C0010646D00100C6D00107402002030
:1018500000ED00E00000002084020020880200204B
:101860000FB400B583B0084802F0CEFA049B002BF9
:1018700007D005A90191180002F0D6FA034802F03A
:10188000C3FA0120FFF74CFF506D0010606D00108F
:10189000F8B5DE4657464E464546E0B505000F0012
:1018A00092460A9A93424ED31A0E91461E020A9A03
:1018B00000233000494601F0EDFA80466C006419BF
:1018C000A4002F4B9C4664446368834200D260604E
:1018D0002B1FDBB29B46012B3BD9C0239B0123432B
:1018E000802212011A60AB00264A9958002905D0BF
:1018F000506901F08DFA01300138FDD153465A018B
:1019000023685A40E0231A4080235B0123431A6076
:101910005A46012A28D980239B01234380221201A1
:101920001A6043466360424600233000494601F096
:10193000B1FAAD00134B58510120F0BCBB46B24682
:10194000A946A046F8BD104B104A2D211048FFF7BC
:10195000EDFE012FC1D1C0239B01234303221A6056
:10196000A368DB07FCD5C9E72168794003220A4058
:101970001A60A2680123BB401342FAD0CBE7C046ED
:10198000008000409CC80020746D0010CC6D0010D9
:10199000886D001030B583B00C2000F021F9FEF7FF
:1019A00065FD00280DD0002304E099002D4A2E4843
:1019B00088500133092BF8D92A4B2C4A5A6203B0BC
:1019C00030BD2B4B00229A6700F012F9294B0122FF
:1019D0001A60274B5B6C012BFBD1274B03221A604B
:1019E000234B9B6B012BFBD1013300930433234A20
:1019F0000121234800F054F805230093214A0121D6
:101A0000214800F04DF8214B0093002202210420D0
:101A1000FFF73EFF1E4D00952B00002201210520FF
:101A2000FFF736FF104C009423000022002107200E
:101A3000FFF72EFF00942300002200210820FFF76B
:101A400027FF0A4B00932300002200210920FFF703
:101A50001FFF00952B00002200210620FFF718FF32
:101A6000ADE7C0469CC80020006CDC021BB700003C
:101A7000008000403CB0004030B00040002F68596A
:101A800000800240008C864700C00240001BB70067
:101A9000405973078000014BC05870479CC8002014
:101AA000F0B5C64600B504000F0090461D000C209E
:101AB00001F0AEF906003D4A42443D4B9A4243D8FC
:101AC00043011B1A9901C91AC90009188901404626
:101AD00001F09EF90200103A98235B009A4239D82F
:101AE0006B1E062B3CD8069B013B062B38D8069B69
:101AF0009D423BD343461A09B2423DD32D04069B77
:101B00001E0335432368002B3CDB2A4B9C424AD002
:101B100080225201284B1A60284B1A60284B9B6880
:101B200011009943FAD12760A060231DC0229201C1
:101B30001A43212313602368002BFCDAE560082395
:101B4000136080BCB846F0BD1E4B1F4A11211F48D0
:101B5000FFF7ECFD1E4B1C4A19211C48FFF7E6FD60
:101B60001C4B194A1C211948FFF7E0FD1A4B164A75
:101B700022211648FFF7DAFD184B134A2521134896
:101B8000FFF7D4FD22683F231340BB42BDD1A368B9
:101B90001B051B0D8342B8D1E368EE22D20213402D
:101BA000AB42B2D1CDE780229201B3E780E84BD3BC
:101BB00080F8A93200C0024000E0004000F0004080
:101BC00000C00040DC6D0010186F00103C6E00106B
:101BD0007C6E0010986E0010E46E0010FC6E001019
:101BE00080239B000343014AD36270470080054075
:101BF000064BAA2212011A602F22DA60044B054A12
:101C00001A60024B5B68002BFBDA70470040024011
:101C10000060024000B0FA00704710B5002802D002
:101C20000B684968984710BD0100002007E0830059
:101C30001B185B00501C08601078C01830380A6808
:101C40001378303BDBB2092BF1D97047F0B5DE4693
:101C500057464E464546E0B583B093461F000C9B61
:101C60009A460D9C0E9B99460F9B9B0703D0B84646
:101C70000F00060022E00192A34688464E46B94670
:101C80000700B44207D2551C4B4641462020B847B6
:101C900001342A00F5E73D004F465C46019B9B4618
:101CA000B1464646B84637002E0007E0013C551CB9
:101CB0005346185D43463900B0472A00002CF5D141
:101CC00035003E0047460F9B9B0707D4100003B02A
:101CD000F0BCBB46B246A946A046F0BDB0464E4653
:101CE000B9462F005D46531BB342EFD2541C4B46FE
:101CF00041462020B8472200F5E7F0B5CE464746DA
:101D000080B585B0944698460C9D0D9C0EAB1B7813
:101D10009946109A119B129EB7071CD4002B0CD029
:101D2000F7070AD54F46002F02D10C37374204D0AF
:101D3000013B02E030272F550134944201D21F2C81
:101D4000F8D9F70707D59C4205D21F2C03D83027B6
:101D50002F550134F5E7F70615D5770505D4002C86
:101D600003D0944224D09C4222D00F9A102A2BD028
:101D70000F9A102A30D00F9A022A35D01F2C02D881
:101D800030222A5501341F2C05D84A46002A31D06A
:101D90002D222A550134039602930194009543465F
:101DA0006246FFF753FF05B0C0BCB946B046F0BD70
:101DB000621E012C06D00F9F102F01D01400D4E713
:101DC000023CD2E71400D0E7B206D1D41F2CCFD802
:101DD00078222A550134D1E7B206CCD51F2CCAD8B7
:101DE00058222A550134C9E71F2CC7D860322A551A
:101DF0000134C3E7720703D52B222A550134CAE701
:101E00003207C8D520222A550134C4E7F0B5DE4692
:101E100057464E464546E0B593B081468A460892FD
:101E200009931CAB10CB1B789B461E9D219B9846AB
:101E3000002C03D1102342469A4390468023DB00B6
:101E400046461E4042461A4212D0002C22D000269E
:101E50000EE03033D9B2771C0AAB99552900200027
:101E600000F0D6FFAC4216D31F2F14D83E0004005A
:101E70002900200000F0CCFFCBB2092BE9D9424663
:101E8000920605D54121C918C9B20A39C9B2E2E79B
:101E90006121F8E7270043460693209B05931F9B8B
:101EA000049303955B46029301970AAB0093099B49
:101EB000089A51464846FFF720FF13B0F0BCBB46D6
:101EC000B246A946A046F0BDF0B5DE4657464E469E
:101ED0004546E0B595B0089009910A920B931E9E75
:101EE0001F9C20AB1B789B46229B9946239D269BDB
:101EF0009A463300234303D1103352469A43924605
:101F00008023DB0057461F4052461A4219D0330047
:101F100023432DD0002714E03033DAB27B1C9846DF
:101F20000CABDA554A462B003000210000F0B2FF1E
:101F3000A5421FD819D043461F2B1BD84746060081
:101F40000C004A462B003000210000F0A3FFD3B262
:101F5000092BE1D95246920605D54122D218D2B2B8
:101F60000A3AD2B2DAE76122F8E7B145E3D901E0F3
:101F70000023984653460693259B0593249B049380
:101F80004B4603935B460293434601930CAB00938D
:101F90000B9B0A9A09990898FFF7AFFE15B0F0BCA1
:101FA000BB46B246A946A046F0BD0000F0B5DE46ED
:101FB00057464E464546E0B591B083468A460C9258
:101FC00098461A9C08941B9D099522002B0020001E
:101FD000290001F0EEF9002800D0E5E0012252428C
:101FE000D74B2000290001F0DFF9002800D0DBE00A
:101FF00001225242D34B2000290001F0BFF90028F2
:1020000000D0D1E000220023089E3000099D290065
:1020100001F0B4F9002800D0DDE008980999069095
:1020200007918023DB001E9A1A400D921E9A1A42D5
:1020300001D106231C930698079904000D000A009D
:102040000600024300D1D1E0080D4005400DBE4C12
:10205000A44660440A03120BBC4B13431F0001F05B
:10206000BBF9BB4ABB4B01F046F9BB4ABB4B01F085
:102070001BF904000D000022B94B3000390001F0BB
:102080000AF9B84AB84B01F036F902000B002000FB
:10209000290001F009F901F0B7F9814601F09CF936
:1020A00004000D00B14AB24B01F025F90022B14BFA
:1020B00001F0FAF801F0A8F90600AF4AAF4B200092
:1020C000290001F018F904000D00300001F084F936
:1020D000AB4AAC4B01F00FF902000B0020002900C5
:1020E00001F0D9F804000D0002000B0001F003F923
:1020F0000A900B91A44BF31800261F0522002B0019
:102100002000290001F0D0F80E900F9122002B0042
:1021100000208021C90501F0BEF804000D00002256
:102120009A4B0A980B9901F0C8F80022984B01F0DD
:10213000BBF802000B000A980B9901F0BEF80022D0
:10214000944B01F0B1F802000B000A980B9901F0D2
:10215000B4F802000B002000290001F0A5F80200ED
:102160000B000E980F9901F0A8F80022774B01F0B0
:102170009BF832003B0001F0BEF806000F0004009F
:102180000D00069A079B01F00FF9002830D00123BB
:102190005B429C46E14400227D4B3000390001F057
:1021A0008CF804000D0023E01E9B04931D9B0393F9
:1021B0001C9B0293089A099B0092019343460C9A38
:1021C0005146584600F0FCF811B0F0BCBB46B24690
:1021D000A946A046F0BD0023002406930794069666
:1021E00080231B069C46654407951AE70023994601
:1021F0004B466333C62B1ED804261E9B1B0526D5D3
:102200002B0023430FD0644A644B0698079901F0D2
:10221000C3F8002879D00022614B0698079901F095
:10222000ADF8002871D01C9B4B4506DD4A46981A34
:10223000431E1C9303E00526DFE700231C93802345
:10224000DB001E9A1A431E920026002399461D9B0E
:102250009E4264D29F1B02231E9A1A400A921E9A23
:10226000134202D0002E00D000274B46002B07D08F
:1022700022002B000698079901F01FF8069007919D
:10228000002200230898099901F078F8002848D125
:10229000444B1E9A1340049303971C9B0293069B86
:1022A000079C0093019443460C9A5146584600F00F
:1022B00087F8002E00D187E71E9B9B063DD545255C
:1022C000441C4346020051462800D8474B46DA17C3
:1022D0009B18534005220592013E0496002203926A
:1022E0000A3202924A46D00F0190009343462200E0
:1022F00051465846FFF78AFD0A9B002B00D163E741
:1023000002005F460C9E1D9D54E01C9B002B9ED03E
:102310000D9B002B9BD01C9B013B1C9397E7002738
:1023200099E7069C079D220029008020000684462C
:1023300061440B0006920793AAE76525C0E7C046F3
:10234000FFFFEF7FFFFFEFFF01FCFFFF0000F03F0B
:10235000FB799F501344D33FB3C8608B288AC63F94
:102360000000F83F61436F63A787D23F71A37909EB
:102370004F930A400000E03F1655B5BBB16B0240D9
:10238000EF39FAFE422EE63FFF03000000002C402A
:1023900000002440000018402D431CEBE2361A3F99
:1023A00080842E41FFF7FFFF541C434651462020F6
:1023B000B8472200931BAB42F6D3100004E7C04697
:1023C000F0B5DE4657464E464546E0B595B0069018
:1023D000079193469946209F1E9A1F9B1000190053
:1023E00000F0E7FF002831D101225242BF4B1E9876
:1023F0001F9900F0C3FF002837D101225242BC4B85
:102400001E981F9900F0D0FF00283DD10022B94B43
:102410001E981F9900F0C8FF002850D10022B64B2B
:102420001E981F9900F0AAFF002848D1002200231F
:102430001E981F9900F0A2FF002850D10023984653
:10244000229B5B0500D4B6E0002458E0229B039356
:10245000219B029303230193A84B00934B465A46BA
:1024600007990698FFF7F2FB0EE1229B0393219B4D
:10247000029304230193A24B00934B465A460799BB
:102480000698FFF7E3FBFFE00423229A1A40229903
:102490000B4210D09B4B002A0FD0042222990391AB
:1024A00021990291019200934B465A46079906984A
:1024B000FFF7CCFBE8E0944BEDE70322EEE7229B2D
:1024C0000493219B039302971E9B1F9C00930194EE
:1024D0004B465A4607990698FFF768FDD4E01E9AC6
:1024E0001F9B0020002100F0D6FE1E901F910123AB
:1024F0009846A5E70CAB30221A55013F01341F2C3A
:1025000001D8092FF6D81E981F9900F07DFF05000D
:1025100000F062FF02000B001E981F9900F0BBFE46
:10252000FA007A4B9B181A685B680A920B9300F0CA
:10253000E2FE0890099100F08BFF060000F048FFD2
:1025400002000B000898099900F0A5FE0890099177
:1025500000226F4B00F028FF00282ED001363000FB
:1025600000F036FF02000B000A980B9900F00CFFF8
:10257000002801D001350026002F2CD1280000F0C2
:102580002BFF02000B001E981F9900F084FE06002E
:102590000F0000225E4B00F0F1FE002846D1002221
:1025A0005B4B3000390000F0FFFE00283ED1EB0706
:1025B0003CD501353AE0062746E70022544B0898FF
:1025C000099900F0DBFE0028D6D1002E01D0F307D8
:1025D000D2D50136D0E7AA461F2C11D8013F0A21D7
:1025E000300000F015FC651C30310CAB19550A2188
:1025F000300000F00DFC092E0ED906002C00EBE790
:1026000055461F2C0CD87B1E002F09D00CAA302158
:1026100011551F000134F4E72B0055461C00F0E76C
:102620001F2C03D80CAB2E221A5501341F2C10D8A6
:102630000A21280000F0C4FB661C30310CAB195590
:102640000A21280000F0BCFB051E01D03400EDE794
:1026500034000323229A1340012B1CD01F2C06D8D0
:102660004346002B32D00CAB2D221A550134229B4D
:102670000393219B029301940CAB00934B465A4663
:1026800007990698FFF7E2FA15B0F0BCBB46B246D0
:10269000A946A046F0BD219B002B13D04346002B3A
:1026A00002D10C3313420FD0219B013B219319001F
:1026B00003E00CAB30221A5501348C42CED21F2CD1
:1026C000F7D9CBE72199F8E72199F6E7229B5B0739
:1026D00004D50CAB2B221A550134C8E7229B1B07EB
:1026E000C5D50CAB20221A550134C0E7FFFFEFFF20
:1026F000FFFFEF7F65CDCD4165CDCDC1306F0010BF
:10270000346F0010286F0010246F0010207100102B
:102710000000E03FF0B5DE4657464E464546E0B580
:1027200093B082468B4690461193002900D1EBE28C
:1027300000275546119B1878002800D1E7E225288C
:1027400009D07C1C43463A005946A847119B0133E7
:1027500011932700EEE7013311930024119A1178A9
:102760000B00203BD8B2102803D88300D048C358B0
:102770009F460B00303BDBB2092B2CD92A292FD0E6
:1027800000230A93119B1A782E2A39D000239A46E7
:10279000119A1378683BD9B2122976D88B00C549B3
:1027A000CB589F4601231C4301321192D6E70223E6
:1027B0001C4301321192D1E704231C4301321192D0
:1027C000CCE708231C4301321192C7E710231C43B6
:1027D00001321192C2E711A8FFF726FA0A90D1E759
:1027E0001C9B1A1D1C921868002804DB0A90119B80
:1027F00001331193C6E702231C4343420A93F6E7D1
:102800008022D20014435A1C11925A781300303B94
:10281000DBB2092B04D92A2A07D000239A46B7E74E
:1028200011A8FFF701FA8246B2E71C9B1A1D1C9201
:102830001868002804DB8246119B01331193A7E737
:102840000020F8E780235B002343511C119152784C
:102850006C2A01D01C0018E0C0239B001C430131EE
:10286000119112E080232343511C11915278682A60
:1028700001D01C0009E0C0231C430131119104E088
:1028800080235B001C4301321192119B18780300D6
:10289000253BDAB2532A00D92CE29300864AD3585A
:1028A0009F4680239B001C4301321192EDE7802359
:1028B0005B001C4301321192E7E7782809D05828C1
:1028C00038D06F2838D0622838D010239C430A268D
:1028D00000E01026582833D0692803D0642801D09E
:1028E0000C229443630501D50122944369282AD020
:1028F000642828D0A30500D59FE0E30500D5B8E003
:10290000630600D4CAE01C9A111D1C911168FF22B5
:102910000A4005940A9B04935346039302960023AE
:102920000193009243463A0059462800FFF76EFA99
:10293000070027E01026CDE70826CBE70226C9E7E7
:1029400020221443C8E7A30520D4E30550D463062E
:1029500066D51C9A111D1C911168FF220A40D317DD
:10296000D118594005940A9B049353460393029649
:10297000D20F0192009143463A0059462800FFF7D2
:1029800045FA0700119B01331193D3E61C9BDA1D16
:1029900007218A43110008311C91116853689C4635
:1029A000DB170C930D930C9A0D9B100048400E9072
:1029B000624653400F930E980F990C9A0D9B801A04
:1029C00099410E900F9108940A9B079353460693E2
:1029D0000496002305936346DA0F0292009001915A
:1029E00043463A0059462800FFF76EFA0700C9E748
:1029F0001C9A111D1C911268D317D11859400594C7
:102A00000A9B0493534603930296D20F01920091BE
:102A100043463A0059462800FFF7F8F90700B1E7A6
:102A2000230605D51C9A111D1C910023D25E96E742
:102A30001C9A111D1C91126891E71C9BDA1D07213D
:102A40008A43110008311C9108940A9B079353464E
:102A50000693049600230593029313685468009329
:102A6000019443463A0059462800FFF72DFA070023
:102A700088E71C9A111D1C9105940A9B04935346E8
:102A800003930296002301931368009343463A0090
:102A900059462800FFF7BAF9070073E723060DD55A
:102AA0001C9A111D1C9112681204120C31E7C046C9
:102AB0003C6F0010806F0010CC6F00101C9A111D2D
:102AC0001C91126825E746281AD01C9B0733072261
:102AD00093431A0008321C9204940A9A03925246B5
:102AE00002925C681B680093019443463A00594681
:102AF0002800FFF765FC0700119B0133119319E6CD
:102B000020231C43E1E7672801D0472802D1802316
:102B10001B011C43452801D0472801D120231C4319
:102B20001C9B0733072293431A0008321C9204941B
:102B30000A9A0392524602925C681B6800930194C1
:102B400043463A0059462800FFF730FA0700119B28
:102B500001331193EEE502231A00224092462342EC
:102B60001FD001241C9B1A1D1C927A1C91461878B8
:102B700043463A005946A8475346002B16D1119BAD
:102B8000013311934F46D5E5561C43465946202044
:102B9000B847230032005C1C9D42F5D83D00170069
:102BA000E0E701233A002F000A9DF4E74A46A946D0
:102BB0000A9D06E0571C434659462020C84734006A
:102BC0003A00661CA542F5D84D469146D7E71C9BB6
:102BD0001A1D1C921B6899465346002B00D1013BDD
:102BE0004E4601E0013613003278002A02D05A1E08
:102BF000002BF7D14B46F21A10928023DB002600FF
:102C00001E401C4203D0524501D953461093022363
:102C10001A0022400B92234205D03A0037004C465E
:102C2000A946554620E03A00109B5F46B3462E0069
:102C300006E0551C434639002020B04723002A00F7
:102C40005C1C0A999942F4D835005E46BB46109444
:102C500037004C46A946554606E01D000134561C77
:102C600043465946C84732002078002804D0002F38
:102C7000F4D06B1E002DF0D117004D460B9B002B9E
:102C800003D1119B0133119354E50A9F109B06E079
:102C9000561C434659462020A847230032005C1C9E
:102CA0009F42F5D81700ECE721231C431C9B1A1DFB
:102CB0001C921B68009305940823049353460393C6
:102CC000102302930023019343463A0059462800FB
:102CD000FFF79CF80700119B013311932AE57C1C38
:102CE00043463A0059462520A847119B01331193CA
:102CF00027001FE57C1C43463A005946A847119B14
:102D000001331193270015E50A4B9A4610E5AA46B0
:102D1000474502D343465A1E00E03A00434659460F
:102D20000020D047380013B0F0BCBB46B246A946DD
:102D3000A046F0BD191C001000B585B002900391AB
:102D40000121009313004A4202A90248FFF7E2FC66
:102D500005B000BD1B1C001001480421014B1847A1
:102D600030020020892D001010B5010018231B88A7
:102D700014221088984710BD10B5010018231B8835
:102D800016221088984710BDF0B5C64600B507005A
:102D90000E0000250123984600E00135B5420AD215
:102DA000AC003C192068FFF7DFFF20600028F4D159
:102DB00000239846F1E7404680BCB846F0BD0000CD
:102DC000124A936F9B0815D29066D166002905D0F0
:102DD000FFE7FFE7FFE7516F106F704704B58021F1
:102DE0000906C2175140002800D0C84303F078FB01
:102DF000002104BDF0B5146E556E576F166FFFF7C6
:102E0000E3FF1466556657671667F0BD000000D0F3
:102E1000114A936F9B0813D210665166002905D0A2
:102E2000FFE7FFE7FFE7516F106F704704B5002819
:102E300001D00020C04303F053FB002104BDC04675
:102E4000F0B5146E556E576F166FFFF7E5FF1466F9
:102E5000556657671667F0BD000000D094464E4A8D
:102E6000926F9208624601D230E0C046F0B54A4EF9
:102E7000B56F6D08FCD3346E756E776F366F00F0EA
:102E800025F89446444A14665566576716676246A5
:102E9000F0BDC0469446404A926F9208624601D205
:102EA00058E0C046F0B53C4EB56F6D08FCD3346EAB
:102EB000756E776F366F00F04DF89446364A14669B
:102EC0005566576716676246F0BDC046002B24DB87
:102ED00011D000293EDA00B5C943404200D101318A
:102EE00000F038F8C943404200D10131DB4352427F
:102EF00000D1013300BD002AEBD1002801D1002907
:102F000005D00020C90FC90701D1C043410800B551
:102F100003F0DEFA0022002300BD00B500290ADB21
:102F2000DB43524200D1013300F014F8C943404260
:102F300000D1013100BDC943404200D10131DB4322
:102F4000524200D1013300F005F8DB43524200D178
:102F5000013300BD002923D1002B18D1002A0CD049
:102F6000BC460D4F38667A6600210023FFE7FFE775
:102F7000FFE77A6F386F67467047002801D007482F
:102F8000010000B503F0A4FA0022002300BD0200F6
:102F90000B00002000217047000000D0FFFFFFFF62
:102FA000002B00D0BFE0130C28D1002AE7D080B45A
:102FB000114F39667A66FFE7FFE730B4040C7B6F88
:102FC000396F1B0423433B667A66FFE7FFE7FFE7A1
:102FD000C04684B27B6F3D6F1B0423433B667A6619
:102FE000FFE7FFE7C04600232C042D0C7A6F386FF3
:102FF00000196941B0BC7047000000D0F0B594469C
:103000000025140E01D112020835140F01D112014E
:103010000435940F01D192000235D40F01D1520032
:103020000135D40B0134254F7C66254C3C660E0CD3
:1030300093B2FFE7FFE7FFE73C6F6643360C770389
:10304000BE467343DF0B5B04C01AB941130C7343D4
:10305000DB18C91ACE086643360CB64493B27343E4
:103060001F0F1B01C01AB941130C73431F0B1B0523
:10307000C01AB941860D8F023E436643360C092DB6
:1030800024DB520A7243801A7703460A6643360CE1
:1030900016235B1BDE40DF40BF1964466643821B7C
:1030A0007046043506330100D940A840C01900D34A
:1030B0000131A24206D20023F0BD0000000000D082
:1030C000FFFFFFFF121B0130F3D3F1E709277F1B3E
:1030D000FE406446A2B27243801A00D20139220C2B
:1030E0007243130C1204821A99410B007046043586
:1030F00013370100F940A840801900D30131002B9B
:1031000002D1A2420AD2F0BD013000D30131121B1C
:10311000FAD2013BF8D1A24200D2F0BD013000D377
:103120000131121BF7E7F0B51C0C00D080E00CB4A5
:1031300000251C0A04D11B02160E33431202083567
:103140001C0B04D11B01160F3343120104359C0BD9
:1031500004D19B00960F334392000235DC0B02D161
:1031600092185B4101351C00971864410134464FA9
:103170007C66464C3C660E0CFFE7FFE7FFE7C04667
:103180003C6F6643360C7703BE4697B27743C01B4D
:1031900000D20139C01B00D201399FB27743C91B4D
:1031A000C91B170C77437E04FF0B801BB941CE0867
:1031B0006643360C0C2D33DBB644120B1F053A4325
:1031C0001B0B97B27743C01B00D201399FB27743E4
:1031D000C91B170C77433E043F0C801BB941860D79
:1031E0008F023E43664329277F1BFE400C3D7746F6
:1031F000AF40BF1930BCA2B2ABB272437343801A66
:103200009941220C7243130C1204801A9941020056
:103210000B000137001BA941F9D2781E0021F0BD37
:103220000C277F1BFE4077467F0BAF40FF19E0E77E
:1032300000245D1C07D0144F7D663966FFE7FFE769
:10324000FFE7FFE73C6F95B29EB265436643401BC4
:10325000B141150C1E0C6543664336042F0C3E43EA
:103260002D04401BB141994204D202000B00200002
:103270000021F0BD01D19042F7D3801A9941013469
:103280009942F2D3F6E70000000000D0FFFFFFFFF5
:1032900048404140484018B41B4B5B68FC460193D2
:1032A00008BD04DF6B35001018B4174B1B68FC46D3
:1032B000019308BD00DF753500109446134A926FE4
:1032C000920809D2624618B40F4BDB68FC460193A2
:1032D00008BD0CDF2D3800100C4AF0B5146E556E89
:1032E000576F166F6246FFF7EEFF084A1466556681
:1032F00057671667F0BD18B4034B9B68FC460193F3
:1033000008BD08DFD13600101CC90020000000D025
:10331000FFB550404240504059404B40594000E0BA
:10332000FFB5154F4C00640D03D0BC4204D10C0313
:1033300014D80020090D09055C00640D03D0BC42BF
:1033400004D11C030AD800221B0D1B0501264B408B
:1033500009D44B4003D58B4200D18242FFBD994234
:10336000FCD19042FFBD0B43DB1803431343F5D060
:10337000C9434918FFBD0000FF07000000B5FFF773
:10338000CFFF804100BDC04600B5FFF7C9FF01D99E
:10339000002000BD012000BD00B5FFF7B9FF01D935
:1033A000002000BD012000BD00B5FFF7B1FF804146
:1033B00000BD012040054A00121804D85A00121816
:1033C00001D800207047012070470020704700009E
:1033D0000021002805D17047C1174840401AFAD093
:1033E000C90713B5064B1B6898470CBC441CA24088
:1033F0001005120B0349091B09051943114310BDA0
:103400001CCA00201F04000010B54C00620D802370
:10341000D218DB00D21A5B057E2A10DD9E3A13DA41
:10342000CC170903490819435242D14064000134C2
:103430001532202A05DAD0400843604310BD002031
:1034400010BD0846604310BDC80FC018013810BD3C
:1034500018B4044B5B6AFC46019308BD24DFDD39D8
:10346000001000001CC9002070B513231C78012C2B
:1034700014D0012C14DC022C02DC1F4A1F4B9A646E
:103480001F48FFF771FC1F4B186070BD99001A4868
:103490001A4A885001331F2BF8D9EAE70023FAE7CC
:1034A0001948FFF769FC05001848FFF765FC02386A
:1034B00003789B007F2B19DD802229000F4800F044
:1034C00091FB022CD7D1124B1A88B5231B029A42CA
:1034D00009D1104B1A88104B9A4204D10F4B1A880D
:1034E0000F4B9A42C7D00020FEF7BAF90D4B0E4A97
:1034F00032210E48FEF71AF9313500101CC90020A0
:103500004C3300001CCA0020534400005346000006
:1035100054380000D8380000494600009C380000AC
:1035200059460000707100101C720010D07100101C
:1035300007B56046002800D100BE01880A0A0230A3
:10354000DF2AFAD1C9B2820804D302884088000475
:10355000104300E00068024A5050039007BD00008D
:103560001CC900200FB403BC0CBCF0B50124E40757
:10357000634000E0F0B50C0DCF0F661E3605891BC9
:10358000640503D3C943404200D30131640D03D025
:10359000661CF60A07D0E41B00207F00791C89070F
:1035A0008912803C24031D0DDF0F6E1E36059B1B08
:1035B0006D0503D3DB43524200D301336D0D03D0BD
:1035C0006E1CF60A07D0ED1B00227F007B1C9B07B8
:1035D0009B12803D2D032F1B661B58D4A446202E22
:1035E00046DA20371400BC401D00BD40F240334194
:1035F0002A4380185941CB0F05D0C943C04300224C
:1036000064425041514162464D0D28D10D0D07D104
:1036100000281FD0241940414941013A0D0DF9D02D
:10362000640006D3013000D30131002C01D14008E1
:103630004000013A0BD4941CE40A04D11205114451
:10364000DB071944F0BDD907204B194300E0D90727
:103650000020F0BD0029DDD1002CDBD1F0BD01320E
:10366000C6074008CD0728434908002EE1D0D9E716
:103670003C2E29DA203E40371400BC4000D0012403
:10368000F24014431A00BB401C43D317ACE7AC46CE
:10369000202F08DA20360400B4400D00B540F84071
:1036A00039412843A5E73C2F0CDA203F403604007F
:1036B000B44000D00124F84004430800B1400C435A
:1036C000C117EAE710001900002494E70000F07F1A
:1036D000F0B50C0D661E3605891BE60A6405640DFF
:1036E00002D0651CED0A04D0002001210905803CB0
:1036F0002403A4461C0D671E3F05DB1BE70A640577
:10370000640D02D0651CED0A04D0002201231B05C4
:10371000803C24037740644497B484B296B27443E7
:10372000070C7E43150C6F4380B26843361802D3F2
:10373000012000043F183004350C00197D418446F7
:1037400088B29AB250430C0C62431F0C7C438EB279
:103750007E43921902D301263604A4191604170CCD
:103760003618674101BC81B29AB25143040C6243DE
:103770001B0C5C4380B25843121802D30120000492
:1037800024181004130C401863412D185E410020CA
:10379000474106BC88B293B258430C0C6343120CE9
:1037A000544389B251435B1802D3012109046418C0
:1037B00019041A0C091862416D185641002047413E
:1037C00018BCF902720D1143F0026A0D1043ED02AC
:1037D0000A0D03D16D1940414941013B124E9B1B1B
:1037E0007600B3420ED26D0007D30130002671413E
:1037F0006646354301D1400840001B05C918E4075F
:103800002144F0BD0BDA013306D1013004D101317E
:103810004F0D01D04908F2E7E1070020F0BD013665
:1038200031050020EBE70000FF030000F0B51C0DA0
:10383000671E3F05DB1BE70A6405640D02D0661CAA
:10384000F60A04D0002201231B05803C2403D02566
:103850002D060026F6432E661E096E66CE0FF6195B
:10386000B44649004F0D02D07E1CF60A03D000205A
:103870000021403F3F033E1BB600B444013F7F059B
:10388000C91B49082E6F013676089C02950D254309
:103890007543ED137543AD1301356D10F603761BBB
:1038A0000CB4CC02450D2C43A2B2B3B25A43270C40
:1038B0007B43350C6F43A4B26C431B1902D3012424
:1038C00024043F191C041D0CA4187D4124196D41CA
:1038D000009A91B2ACB26143170C7C432B0C5F434E
:1038E00092B25A43A41802D301221204BF18220430
:1038F000230C52187B41019C6C431B19520ED901B9
:103900000A434401A01A81B2B2B2514303145A438C
:10391000360C734387B27743D617D21900277E41FE
:1039200036049B191704160C7F185E417316ED18A8
:10393000F301002680337541A90F06D16400690A9E
:10394000E8055B0A184309D22FE00422944480332F
:103950007541A90AA8059B0A184326D3404149414D
:103960002404009A019B0D005543641B4343E41A51
:1039700095B286B27543170C7E43030C5F4392B237
:103980005A43B61802D301221204BF183204330C72
:1039900052197B4152429C41002C02D4002201303A
:1039A00051414008CA071043490802B06246D70790
:1039B0009210084BD218084B9A4203D2120589186C
:1039C000C919F0BD0020002A01DC3900F0BD013327
:1039D0001905F5E7FD030000FE070000002200B511
:1039E000203200F004F8080000BD000000220B1592
:1039F0000AD410B5944600F031F81414013400DAFA
:103A00000021CB17144C204700200021704762444E
:103A1000343A0CD40C2A07DA040091409040524208
:103A20002032D440214310BDD843D94310BD2032A9
:103A300007D40C469440524220321141D0402043DA
:103A400010BD0800C917203203D452422032104161
:103A500010BD1800190010BD0F3A00100A0DCC0F50
:103A6000531E1B05C91A520503D3C943404200D354
:103A70000131520D03D0531CDB0A07D0121B00206A
:103A80006400611C89078912803A1203014BD21A23
:103A900070470000FF03000070B513231D782A480B
:103AA000FFF76AF90400012D11D0012D09DDA31ED5
:103AB0001B789B007F2B40DD80222100234800F0F3
:103AC00091F82348FFF750F9224B186070BD54223B
:103AD00001001E4800F086F81F4B1A881F4B9A42BF
:103AE0001CD1A7239B011A881D4B9A4216D11D4B4E
:103AF0001A881D4B9A4211D11C4B1A8894239B01A2
:103B00009A420BD11A4B1A881A4B9A4206D11A4B79
:103B10001A681A4B9A4201D1152307E01848FDF79D
:103B20009FFE99001748094A885001331F2BF8D986
:103B3000144A064B1A62DA61B7E7134B134A422163
:103B40001348FDF7F3FDC0465346000020CA00208D
:103B50004C3300001CCA0020EE290000C40F0000F6
:103B6000C20D0000962B0000C0B50000182B00000D
:103B7000CC2A000010B50000FC2C000051ED876439
:103B8000B86C0010953B001030720010AC72001041
:103B90006472001007B56046002800D100BE01889D
:103BA0000A0A0230DF2AFAD1C9B2820804D3028895
:103BB00040880004104300E00068024A505003901F
:103BC00007BD000020CA002001480421014B18470E
:103BD00040020020892D0010014B1B68184700008F
:103BE00040020020014B5B681847000040020020A3
:103BF00010B50300080011001B68984710BD0000B5
:103C0000F8B507000D001600437C002B02D00024FD
:103C100000200CE003681100280098472DE03B7C51
:103C200010E0022115483B689847601C0134B442FB
:103C300014DA002CF3DD2B19013B1B780D3B5A42A3
:103C40005341DBB22A5D0A2AF0D1002BEED1A0420B
:103C5000E7DA211A28183B689847E2E7B04203DA0E
:103C6000311A28183B689847002E06DDAD19013D32
:103C70002B780D3B5A4253413B74F8BD2073001022
:103C800070B505000368002B16D00C4B1C6805E0CE
:103C9000290004C92000FFF7B3FFE468002C09D015
:103CA0002368002BF9D0064B1B68002BF0D0A342F1
:103CB000F3D1EDE700232B6070BDC04604C900209E
:103CC00008C9002070B505000C000B68802B05D0DA
:103CD00021684B1C23606418257170BD0800FFF734
:103CE000CFFFF5E710B582B0D0231B0600241C5788
:103CF00001A9074802F0FCFB002806D1019B9C4269
:103D000003D0034802F0FCFB012002B010BDC04606
:103D10006C02002010B5024802F0D2FB10BDC04674
:103D20006C020020F0B5CE46474680B583B0060051
:103D30000D0090461C00FFF7D5FF81466B1C05D097
:103D4000002C08D0194F1A4B1C6807E0300002F015
:103D500085FB0500F4E7174FF5E7E468002C17D062
:103D60002368002BF9D0144B1B68002B01D0A34211
:103D7000F3D12A0031002000B8474346002BECD095
:103D80006B46D91D0A230B7001222000B847E4E7D7
:103D90004B46002B07D16B1E9D41E8B203B0C0BC5F
:103DA000B946B046F0BDFFF7B5FFF4E7F13B0010B0
:103DB00004C90020013C001008C90020094A01E0A4
:103DC0000C331A001368002B08D08342F8D1002965
:103DD00007D1C36813600023C36002E0002900D04C
:103DE0001060704704C9002010B5064B1C6801E044
:103DF0009847E468002C03D06368002BF8D1F8E7FB
:103E000010BDC04604C9002070B5050002F026FBB5
:103E100004000023012201002800FFF783FFFFF7C1
:103E2000E3FF200070BD000070B5A2B004000E00DA
:103E3000FFF758FF05008422002101A8FFF7CCFE00
:103E40003300220001A90848FEF776FF040001A80C
:103E5000FFF716FFFFF7C8FF002D02D1200022B0A8
:103E600070BDFFF757FFF9E7C53C00100FB400B570
:103E700083B004A901C90191FFF7D6FF03B008BCC4
:103E800004B0184710B500F085F810BDF0B583B048
:103E900005000E0000240FE06B46D91D0D230B70AA
:103EA0000020002816D193699B06FCD40B78136080
:103EB00001300131F5E70134B44219DA0D4B1A68CB
:103EC0002F5D0D4BD31859424B415B000B495B5E94
:103ED000BB42E1D06B46D91D0F7000200028EAD10B
:103EE00093699B06FCD40B78136001300131F5E730
:103EF00003B0F0BD38CB00200080FCBF34CB0020E5
:103F0000F0B583B006000F00002004E06B460733D5
:103F10001B7823702800B84215DA0E4B1A68936993
:103F20001024210019401C420DD1451C34186B4649
:103F3000D81D0029EAD19369DB06FCD4136803700D
:103F400001310130F5E7002801D003B0F0BD03389E
:103F5000FBE7C04638CB002070B515001C000B4BAA
:103F60001860FDF79DFB002D06DA002C09DA01210F
:103F70000748FFF723FF70BD02212800FCF722FA53
:103F8000F3E702212000FCF71DFAF0E738CB002010
:103F90005002002010B5064B1B78064B1B78E12120
:103FA0000123002249020448FFF7D6FF10BDC04696
:103FB000C0730010C473001000400340084B4269F6
:103FC0009A4201D000207047826A14339A4203D08B
:103FD000002A03D00020F6E70020F4E70120F2E7F2
:103FE000A4030020074B9B6A1B68002B04D1054BE0
:103FF00001225242DA627047024B9A6AD268126812
:10400000DA62F8E7A403002010B50400006B01F0A9
:10401000C7FC200001F0C4FC10BDF0B5DE465746D9
:104020004E46C0B582469B46089E0A9F1C4B9C4646
:10403000624492003B6B9C46624407239A4391463C
:1040400000290ED000240F2C08D80B5D3D19343503
:104050002B700B5D002B01D00134F4E743230022C9
:10406000FA54032E00D90326FE62381D01F035FDF7
:104070003800183001F031FD3F6104239E1BBE6102
:104080007F625A465146484601F03CFB3860099B26
:10409000002B00D01F60E0BCBB46B246A946F0BD75
:1040A000FFFFFF3F70B5002408E01148A3001B1973
:1040B0009A003030801801F005FD0134032CF4D94A
:1040C0000C4C200001F0FEFC26001436300001F0FC
:1040D000F9FC074D2800143001F0F4FC20002830D2
:1040E00001F0F0FC280001F0EDFCAC62E66370BD6D
:1040F000A40300202404002070B5040001F020FB7C
:10410000274B1A6C01321A645B6C002B0CD0244BC9
:104110009B6C002B0DD1224B5B6CDB6AE26A9342F5
:1041200007D81F4B5C6404E01D4B5C641B6C012BC7
:104130002FD01B4AD36C0133D364E36A126D9342D0
:1041400001D9174A136517499A00D21892008A18A4
:10415000536BA3609868E060221D42609A60E06A39
:104160000A00303283001D18AD00521962614A19ED
:10417000126B01324B191A6301F0EEFA084B9B6C7B
:10418000002B05D0064B5B6CDA6AE36A9A4203D3D4
:1041900070BDFFF787FFCCE701F0C6FAF8E7C0462D
:1041A00024040020A403002070B512E001F0C8FA36
:1041B0000A4C636BDD68281D01F0B4FC236C013BE5
:1041C0002364636D013B636501F0C6FA2800FFF7C5
:1041D0001BFF024B5B6D002BE8D170BD2404002057
:1041E00010B5FFF7E1FF034B1B6B012BF9D901F071
:1041F0009BFAF6E7A403002070B504000D001C4BE9
:104200009E6D586C043001F08DFC631C0CD0341989
:10421000174B5B6C5C60A6421CD9154BD86B596C74
:10422000043101F068FC70BD002DF0D0114A5168D6
:104230000F4B586C8160586C8C68C460586C0430AB
:104240006060586C043088605B6C5A61136801339D
:104250001360E8E7074DA86A054B596C043101F07B
:104260004AFCEB6AA342DED9024BDC62DBE7C046C4
:1042700024040020A4030020F0B587B00490059129
:1042800016001F00900001F02DFB041E21D06820B5
:1042900001F028FB051E18D068220021FFF79CFCC6
:1042A0002C63002D19D00023039302950D9B0193DD
:1042B0000C9B00933B00320005990498FFF7ADFE7C
:1042C0002800FFF719FF012005E0200001F068FB3E
:1042D000E7E70120404207B0F0BD01204042FAE785
:1042E00070B5040001F02CFA002C29D0251D2800FF
:1042F00001F018FCA36A002B03D02000183001F055
:1043000011FC174BDA6C0132DA645B6CA3421AD0F1
:10431000134A136C013B1364FFF764FE01F01CFAAF
:104320000F4B5B6CA34202D02000FFF76DFE0C4BDD
:104330009B6C002B03D00A4B5B6CA3420DD070BD6D
:10434000074B5C6CD2E7064E30002830290001F0A4
:10435000C7FB736D01337365E0E701F0E5F9EEE744
:104360002404002010B5040001F0EAF9002C04D068
:10437000E46A01F0F1F9200010BD014B5C6CF7E735
:104380002404002010B5040001F0F0F9002C04D042
:10439000E46A01F0EFF9200010BD014B5C6CF7E717
:1043A0002404002070B504000D00032900D9032562
:1043B00001F0C6F9002C0ED0E36A9D4226D00DD93B
:1043C0002A4A526CA24224D0284A526CD26AAA428B
:1043D00021D9002607E0254B5C6CEDE7234A526C9F
:1043E000A2421AD00026E562A269002A02DB04215B
:1043F0004D1BA5611E4A9900C9188900130030336E
:104400005B1862699A420AD0002E2CD101F0A4F9FF
:1044100070BD0026E7E70126E5E70126E3E7251D55
:10442000280001F07FFBE36A104A126D934201D924
:104430000E4A13650E499A00D21892008A18536BDF
:10444000A3609A68E26055609D60E06A0A003032BD
:1044500083001D18AD00521962614A19126B0132B6
:104460004B191A63D0E701F05FF9CFE7240400206D
:10447000A403002070B504001D4B5B6C83420AD07E
:10448000002808D001F05CF92000FFF797FD002814
:1044900002D101F061F970BD251D280001F042FB39
:1044A000E36A134A126D934201D9114A1365114907
:1044B0009A00D21892008A18536BA3609A68E2603F
:1044C00055609D60E06A0A00303283001D18AD001F
:1044D000521962614A19126B01324B191A63E26A6E
:1044E000034B5B6CDB6A9A42D3D301F01DF9D0E732
:1044F00024040020A4030020F8B5040001F036F9DC
:1045000006002000FFF75AFD051E30D01F4BDB6D63
:10451000002B33D11D4B5B6CDB6AE26A9A422BD3D2
:104520001A4B01221A660125271D380001F0FAFAFC
:10453000E36A164A126D934201D9144A136514496D
:104540009A00D21892008A18536BA3609A68E260AE
:1045500057609F60E06A0A00303283001F18BF0076
:10456000D2196261CA19126B0132CB191A63300079
:1045700001F000F92800F8BD0025D5E72100183129
:104580000348143001F0ACFA0025F0E724040020C1
:10459000A403002000B583B08022114B6433019343
:1045A0000023009352000F490F48FFF765FE0128D2
:1045B00005D0012806D00D4B1B6803B000BD00F0EC
:1045C000C4FFF6E772B60A4B01225242DA62044B8C
:1045D00002329A6400229A6501F01AF9EBE7C046AC
:1045E0002404002064730010E141001064020020E4
:1045F000A403002010B572B6024B00229A6401F0A9
:1046000092F810BD24040020024AD36D0133D36513
:104610007047C04624040020014B986D7047C04687
:1046200024040020014B986D7047C04624040020EC
:10463000014B186C7047C04624040020002801D0AC
:1046400034307047014B586CFAE7C0462404002010
:10465000F8B5474BDB6D002B00D082E0444B9E6DDC
:1046600001369E65002E0AD0424BDB6AB34211D957
:1046700000203F4B1B6E002B78D0012076E03D4A96
:10468000916AD86B9062D9639A6E01329A66FFF78D
:10469000A9FCE9E7002039E0364B01225242DA62F8
:1046A000E7E7344BDA62E4E7D968516044E000217F
:1046B0009962116801391160D96A2D4A126D9142CF
:1046C00001D92B4A11652B4A8C006418A10051189E
:1046D000496B99608C68DC6065608D60DC6A1500F0
:1046E0003035A1000F19BC46BF00ED195D6167466A
:1046F000BD0055192D6B0135BC0012191563DA6A1E
:104700001B4B5B6CDB6A9A4200D90120194B9B6AF8
:104710001B68002BC0D0174B9B6ADB68DB685A68AC
:104720009642BED35A699C68D968A1609C684C6067
:104730001D1D5168A942B7D0002159611168013986
:1047400011609A6A002AB7D0DC69196AA160DC6935
:104750004C601900183154688C42A8D1196A516014
:10476000A5E7034AD36E0133D3660020F8BDC046E7
:1047700024040020A403002070B500F0E1FF434BA7
:10478000DA6D013ADA65DB6D002B7AD13F4B1B6C99
:10479000002B07D1002475E0196A516015E0D96833
:1047A000516021E000233A4A5269002A4AD0384B2E
:1047B0001B6ADB689A6AD869196A8160D86948609F
:1047C0001900183150688842E6D0002199621168BA
:1047D000013911605A699868D968816098684860A1
:1047E0001C1D5168A142DAD00021596111680139BC
:1047F0001160DA6A2549096D8A4201D923490A659F
:10480000234891008918890041184A6B9A60916881
:10481000D9604C609460DC6A01003031A200151947
:10482000AD00491959614119096B013142191163F0
:10483000164A526CD26AD96A9142B4D3134A012102
:104840001166B0E7002B01D0FFF7CCFB0F4BDC6EFD
:10485000002C0AD10D4B1C6E002C13D000F064FF0D
:1048600001240FE0013C002C07D0FFF7F1FE0028E7
:10487000F8D0064B01221A66F4E7044B0022DA66F0
:10488000E8E7002400F068FF200070BD2404002049
:10489000A403002070B505000C00FFF7B5FE144B13
:1048A000986D2B681C1983420BD9A34202D82C6047
:1048B000002410E0A04202D32C6000240BE02C6006
:1048C00004E0A34201D8A0420BD22C60201A0021A0
:1048D000FFF792FC0124FFF74FFF002804D02000CF
:1048E00070BD2C600024F6E700F01EFFF7E7C0461D
:1048F0002404002010B5041E09D0FFF785FE002116
:104900002000FFF779FCFFF737FF002801D100F006
:104910000BFF10BD10B50400FFF776FE00F010FF8E
:10492000044BD86E0019D86600F016FFFFF724FF7D
:1049300010BDC0462404002010B51C4BDB6D002BBD
:1049400003D01A4B01221A6610BD184B00221A66BA
:104950001B6D00E0013B9A00D2189100144A5218D6
:10496000126B002AF6D0124A9900CC18A000101839
:10497000446B646844633032C918880008301218E8
:1049800094420AD09A00D2189100094A5218526BE8
:10499000D168064A51641365D6E79900C9188800A2
:1049A000034A1218D16B5163ECE7C046240400207F
:1049B000A403002070B5040000F0C2FE002C10D04B
:1049C000251D280001F0AEF8A36A002B03D02000BB
:1049D000183001F0A7F829001D4801F081F80023E4
:1049E00003E01C4B5C6CEBE70133022B09DCE218A3
:1049F00064321278012AF7D1E21864320021117072
:104A0000F2E700F0A9FE134B9B6C002B04D1114B75
:104A10005B6CA34207D070BD00F092FEFFF7E2FA94
:104A200000F09AFEF3E70B4B9B6C002B09D1084B6F
:104A30001A68084B1B6C9A4206D1064B00225A6436
:104A4000E9E700F071FEE6E7FFF776FFE3E7C0462F
:104A5000A40300202404002010B50C00044B596C62
:104A6000183101F048F801212000FFF7C5FB10BD07
:104A70002404002070B5030010000D4C656C8022EA
:104A800012060A43AA615A68616CCA61616C956832
:104A90000D62616C18316960616C18319160626CF3
:104AA00093621A6801321A600121FFF7A5FB70BDFD
:104AB0002404002070B50300080011005A680C4C53
:104AC000656CEA61656C96682E62656C1835756078
:104AD000656C18359560626C93621A6801321A60D1
:104AE000002901D001204042FFF786FB70BDC0467F
:104AF0002404002030B5C368DB689A6AD869196A53
:104B00008160D8694860180018305168814241D0EE
:104B100000219962116801391160294AD26D002A79
:104B20003ED15A699868D9688160986848601C1DB0
:104B30005168A14231D000215961116801391160D9
:104B4000DA6A1F49096D8A4201D91D490A651D4863
:104B500091008918890041184A6B9A609168D96060
:104B60004C609460DC6A01003031A2001519AD0080
:104B7000491959614119096B013142191163DA6A06
:104B80000F4B5B6CDB6A9A4218D90D4B01221A66F7
:104B9000012030BD196A5160BAE7D9685160CAE78F
:104BA000084A9169D9618C681C6260608860110054
:104BB00014319962516901315161E0E70020E8E761
:104BC00024040020A403002030B580231B060B43DF
:104BD0000360C3680269416884688C6081684468C6
:104BE0004C60516881423CD000210161116801395B
:104BF00011605A699868D9688160986848601C1D7E
:104C00005168A14230D00021596111680139116009
:104C1000DA6A1749096D8A4201D915490A651548AA
:104C200091008918890041184A6B9A609168D9608F
:104C30004C609460DC6A01003031A2001519AD00AF
:104C4000491959614119096B013142191163DA6A35
:104C5000074B5B6CDB6A9A4202D9054B01221A664C
:104C600030BD81685160BFE7D9685160CBE7C0466D
:104C700024040020A403002010B5040000F060FD0F
:104C8000034B9A6E22609B6D636000F065FD10BD62
:104C900024040020024B9A6E02609B6D43607047B3
:104CA00024040020F8B504000D0000F049FD124B6B
:104CB000996D6368C81A2A68561C18D00E4EB66ED5
:104CC0002768B74205D08B4203D800232B6001240C
:104CD0000EE0824203D800232B60012408E05B1A17
:104CE0009B182B602000FFF7D5FF002400E0002474
:104CF00000F032FD2000F8BD24040020014B012209
:104D00001A66704724040020042905D8002804D01E
:104D10001031890041184A607047014B586CF7E721
:104D200024040020042909D8002804D01031890067
:104D3000411848687047024B586CF7E70020F9E7C4
:104D400024040020014B586C7047C0462404002006
:104D5000064B9B6C002B07D0044BDB6D002B01D066
:104D6000002002E0022000E001207047240400201F
:104D7000044A536C9869536CD96A526C04235B1AC9
:104D8000936170472404002070B504000D001600E4
:104D900000F0D6FC1E4B5A6C230016339B009B5828
:104DA000002B07D11A4B5B6C1B19643301221A705C
:104DB000002E1ED100F0D0FC00F0C2FC144B5A6C47
:104DC000230016339B009E58002E08D0002D17D0CC
:104DD0000F4B5A6C230016339B00002199500C4B4B
:104DE000586C041964340023237000F0B5FC3000C3
:104DF00070BD01213000FFF7FFF900F095FCD9E705
:104E0000034B596C721E230016339B005A50E6E781
:104E100024040020F8B504000E0015001F0000F067
:104E20008FFC234B5A6C121964321378022B0FD06B
:104E30001F49486C230016339B001A58B2431A507E
:104E40004B6C1B19643301221A70069B002B1ED178
:104E500000F082FC00F074FC002F06D0144B5A6C5A
:104E6000230016339B009B583B60114B5B6C1B1956
:104E700064331B78022B11D000250D4B586C04199C
:104E800064340023237000F067FC2800F8BD012182
:104E90001800FFF7B1F900F047FCD9E7044B596C53
:104EA000230016339B005A58AA435A500125E4E7C1
:104EB00024040020F8B504000D0016001F0000F0C7
:104EC0003FFC069B002B05D02B0016339B001B5983
:104ED000069A1360611964310878C0B202230B701E
:104EE000032F24D00CD8012F1AD0022F06D116354B
:104EF000AD002B5901332B5101250BE0012509E0B1
:104F0000042F06D1022817D01635AD002E510125E9
:104F100000E00125012811D000F01EFC2800F8BD9A
:104F20001635AD002A5916432E510125F2E71635E4
:104F3000AD002E510125EDE70025EBE76369A2687E
:104F4000E1689160E268A1685160211D5A688A4257
:104F50002CD0002262611A68013A1A60E36A154A8D
:104F6000126D934201D9134A136513489A00D2185F
:104F700092008218536BA3609A68E2605160996056
:104F8000E36A020030329900CE18B60092196261CD
:104F90008219126B013283191A63E26A054B5B6C4A
:104FA000DB6A9A42B8D900F0BFFBB5E7E2685A6005
:104FB000CFE7C04624040020A4030020F0B583B04E
:104FC00004000D0001921E00089F00F0CFFB002F8F
:104FD00004D02B0016339B001B593B6063196433CC
:104FE0001F78FFB202221A70032E27D00CD8012E90
:104FF0001CD0022E06D11635AD002B5901332B5192
:1050000001250CE001250AE0042E07D1022F1BD058
:105010001635AD00019B2B51012500E00125012F24
:1050200014D000F0A7FB280003B0F0BD1635AD008A
:105030002A59019E16432E510125F0E71635AD0081
:10504000019B2B510125EAE70025E8E72A4BDB6DA0
:10505000002B41D16369A268E1689160E268A168B0
:105060005160261D5A68B24233D0002262611A682C
:10507000013A1A60E36A204A126D934201D91E4A2E
:1050800013651E499A00D21892008A18536BA360C8
:105090009A68E26056609E60E66A0A003032B300A9
:1050A0009F19BF00D2196261CA19126B0132CB1964
:1050B0001A63E26A104B5B6CDB6A9A42B1D9099BB6
:1050C000002B02D00123099A13600B4B01221A66B0
:1050D000A7E7E2685A60C8E7084B9A69E2619668F8
:1050E000266221001831716091601A001432A262A8
:1050F0005A6901325A61DCE724040020A40300202D
:10510000F8B506000C00150000F030FB33196433CD
:105110001A78022119701634A400A3590133A3513F
:10512000012A02D000F026FBF8BD2A4BDB6D002BD4
:105130003FD17369B268F1689160F268B1685160FB
:10514000341D5A68A24231D0002272611A68013AB5
:105150001A60F36A1F4A126D934201D91D4A136502
:105160001D499A00D21892008A18536BB3609A684E
:10517000F26054609C60F46A0A003032A3001F1988
:10518000BF00D2197261CA19126B0132CB191A63AE
:10519000F26A104B5B6CDB6A9A42C3D9002D01D0D6
:1051A00001232B600B4B01221A66BBE7F2685A60A1
:1051B000CAE7094B9A69F261946834623100183188
:1051C000616091601A001432B2625A6901325A6108
:1051D000DEE7C04624040020A403002070B50400CC
:1051E0000D0000280BD000F0ABFA631964331B7874
:1051F000022B07D0002400F0AFFA200070BD044B52
:105200005C6CF0E764196434002323700124F2E736
:105210002404002070B505000C00160000280BD0F7
:1052200000F08EFA1634A1004C594B59B3434B5140
:1052300000F092FA200070BD014B5D6CF0E7C046B3
:1052400024040020074B1A681368002B06D1013391
:105250000360002B04D1D368186870470023F7E778
:105260000020FAE79404002010B5416000619142EB
:105270000CD8D21A83699A4201D3012010BD011DB6
:10528000094B586800F037FC0020F7E79A4201D23A
:10529000994206D2011D044B186800F02CFC002036
:1052A000ECE70120EAE7C0469404002070B5040052
:1052B0000D00160005E0A3699C4665442000236AA2
:1052C0009847A36959192B0032002000FFF7CCFF43
:1052D0000028F0D170BD70B505000E000C4B1B68A6
:1052E000DB68DC68201D00F01DFC2423E35C5A070A
:1052F00007D4012293432332A354236A2000984702
:1053000070BD320029002000FFF7D0FFF5E7C0464E
:105310009404002010B505E0DB68186801214942BB
:10532000FFF7D9FF044B1B681A68002AF4D1024A20
:1053300051681160536010BD9404002070B50500E1
:10534000FFF76AF90400074B9B68834205D80023E6
:105350002B60044B9C60200070BDFFF7DBFF012336
:105360002B60F6E79404002070B582B004000D00B5
:10537000FFF74AF901A8FFF7E1FF0600019B002BA8
:1053800023D1002D01D1A04213D2002D05D0104A07
:1053900052681268002A13D10125A11B0C4BD86852
:1053A0002A0001F033F8FFF7E7F900280AD002B02D
:1053B00070BDFFF7E1F931002000FFF78CFFF6E741
:1053C0001D00EAE700F0B0F9F1E7FFF7D5F9EEE7E5
:1053D0009404002030B585B0324BD868002201A972
:1053E00000F0E9FD00285AD0019B002BF4DB039C60
:1053F0006369002B02D0201D00F094FB6846FFF784
:105400009DFF050001990929E6D88900264B5958C6
:105410008F462422A35C01210B43A3540299A36964
:105420009C466144029B02002000FFF71DFF0028FC
:10543000D2D02423E35C5A0707D4012293432332BA
:10544000A354236A20009847C6E70299A3699C46A3
:1054500061442A002000FFF729FFF2E72422A35C21
:1054600001218B43A354B7E72422A35C01210B4302
:10547000A3540299A1610918030002002000FFF75C
:10548000F3FEA9E72423E35C9A0704D501229343A2
:105490002332A354A0E7200000F082FA9CE705B075
:1054A00030BDC046940400206C73001000B583B07A
:1054B00001A8FFF7C7FE0199FFF756FFFFF78AFF24
:1054C000F6E770B500F03CF90F4BDB68002B02D01B
:1054D00000F042F970BD0C4C26001036300000F090
:1054E000F1FA25002435280000F0ECFA266065600A
:1054F00000220C210A2000F02BFCE0600028E7D0FD
:10550000024900F033FFE3E7940400209473001095
:10551000F0B5C64600B580460F0015001E00079C7A
:10552000FFF7CFFF43462360A761E661069B236236
:10553000201D00F0D2FA002D04D02422A35C042107
:105540000B43A35480BCB846F0BD00B583B0FFF751
:10555000B8FF0A4BDB68002B0DD08022074B383395
:105560000193032300930023520005490548FEF7E9
:1055700083FE03B000BD0020FBE7C046940400207A
:105580009C730010AD540010F0B585B003900D0071
:1055900016001F00282000F0A5F9041E0BD02423BC
:1055A0000022C25401900A9B00933B003200290064
:1055B0000398FFF7ADFF200005B0F0BD30B585B012
:1055C00004001D00124BD86800281FD001910292E0
:1055D0000394052913DCFFF7BBFB022807D00C4B13
:1055E000D8680023002201A900F0F1FB0CE0084B71
:1055F000D8680023089A01A900F0E9FB04E0002321
:105600002A0001A900F05CFC05B030BD0020FBE7DA
:1056100094040020014B986B7047C046940400200E
:105620008069704770B504000D0000F089F8002D06
:1056300007D02422A35C04210B43A35400F08CF870
:1056400070BD2422A35C04218B43A354F6E710B55C
:10565000040000F075F82423E35C5B0704D4002405
:1056600000F07AF8200010BD0124F9E710B5FFF72B
:10567000EEFF10BD406870470068704710B5040029
:1056800000F05EF82423E35CDB0704D4002400F080
:1056900063F8200010BD0124F9E710B5040000F004
:1056A0004FF8E46900F058F8200010BD70B5040010
:1056B0000D0000F045F8E56100F04EF870BDC04601
:1056C00082B00023019372B6019B002BFCD002B084
:1056D00070470B4A13681868203080F3098802204D
:1056E00080F31488BFF36F8F3FBCAE4608BC04BC88
:1056F00062B61847C046C046C046C046C046C0460F
:105700006804002010B5031F802464041C60043B5F
:105710001960043B02491960143B1A60403810BDFF
:10572000C156001070477047044B802252051A6022
:10573000BFF34F8FBFF36F8F7047C04604ED00E09B
:1057400072B6044A136801331360BFF34F8FBFF37F
:105750006F8F704768020020034A1368013B136093
:10576000002B00D162B6704768020020EFF3108072
:1057700072B6704780F310887047EFF30980104BC2
:105780001A6820381060F0C044464D4656465F46C1
:10579000F0C008B572B6FFF7CFF862B60CBC11685E
:1057A00008681030F0C8A046A946B246BB4680F350
:1057B00009882038F0C81847C046C046C046C046D1
:1057C0006804002010B5FFF7D1FF0400FEF740FF8A
:1057D000002803D0034B802252051A602000FFF7F7
:1057E000C9FF10BD04ED00E0054B00221A60054919
:1057F0000A60054A0549116003221A607047C046D5
:1058000010E000E018E000E014E000E0E703000032
:1058100010B50C4B1968FF2212040A431A6019686C
:10582000FF2212060A431A60FFF7DEFF064B002232
:105830001A60FFF74EFFFFF77FF8FFF741FF0020E8
:1058400010BDC04620ED00E06802002010B50E4AF1
:10585000530717D0D11D072399430C4B5B1A9B1894
:105860000A000B490A6000204860D318083B07244F
:10587000A3438B6058601860981A50601360C8602A
:10588000086110BD014BECE7EC04002050C30000A0
:10589000D004002010B5124B1A001B688342FBD3C2
:1058A00051685418844208D041684418A34209D072
:1058B0000360904200D0106010BD4068091851602C
:1058C0001000F1E7064CA468A34206D05B68C91833
:1058D000416013681B680360EBE70460E9E7C046BA
:1058E000D004002070B50500FEF78EFE2B4B9B68A0
:1058F000002B13D0002D07D007222A4010239B1A1B
:10590000DA43AA420DD3ED18002D3EDB3FD0234BE6
:105910001B69AB423DD3214A146806E0FFF796FFAE
:10592000E8E70025F0E722001C006368AB4202D2E2
:105930002368002BF7D1194B9B68A3422BD0166824
:1059400008362368136063685B1B102B17D86168E7
:10595000124A13695B1A1361D268934201D20F4A4B
:10596000D36080231B060B436360002323600B4A34
:10597000536901335361FEF7FFFE300070BD6019BB
:1059800043606560FFF786FFE1E70026F3E7002646
:10599000F1E70026EFE70026EDE7C046D00400203F
:1059A00070B5002807D00500083D6B68002B02DAAF
:1059B0002A68002A00D070BD5B005B086B60FEF7B0
:1059C00023FE6B68064C22699446634423612800D9
:1059D000FFF760FFA3690133A361FEF7CDFEEAE79D
:1059E000D0040020014B18697047C046D004002045
:1059F000014BD8687047C046D0040020704770B58E
:105A0000041E09D000200D0C230C002D1DD19AB2CC
:105A1000002A0DD100281ED14C432000FFF762FF61
:105A2000051E03D022000021FEF7D6F8280070BD25
:105A30000D1C8EB2A2B27243ADB29BB26B43120C7C
:105A40009B181B0CE6D00120E4E79BB2002BFAD197
:105A50002B1C251CEDE70025E8E7F8B50700FEF74D
:105A6000D3FD174B1B68002B04D001256D42002687
:105A7000002417E001256D4200260024FEF77CFE7D
:105A80007E60BD60FC60FFF75BFE0D4B1A693A60FB
:105A90005A697A619A69BA61DB683B61FFF75CFE1B
:105AA000F8BD1B68064A92689A42E7D001345A68EA
:105AB000B24200D91600AA42F3D21500F1E7C0465F
:105AC000D004002003000833436001225242826068
:105AD000C3600361002303607047002303617047C4
